{"abi":[{"type":"constructor","inputs":[{"name":"_feeRecipient","type":"address","internalType":"address"}],"stateMutability":"nonpayable"},{"type":"function","name":"FEE_DENOMINATOR","inputs":[],"outputs":[{"name":"","type":"uint256","internalType":"uint256"}],"stateMutability":"view"},{"type":"function","name":"MAX_FEE","inputs":[],"outputs":[{"name":"","type":"uint256","internalType":"uint256"}],"stateMutability":"view"},{"type":"function","name":"calculateFee","inputs":[{"name":"amount","type":"uint256","internalType":"uint256"}],"outputs":[{"name":"feeAmount","type":"uint256","internalType":"uint256"},{"name":"recipientAmount","type":"uint256","internalType":"uint256"}],"stateMutability":"view"},{"type":"function","name":"fee","inputs":[],"outputs":[{"name":"","type":"uint256","internalType":"uint256"}],"stateMutability":"view"},{"type":"function","name":"feeRecipient","inputs":[],"outputs":[{"name":"","type":"address","internalType":"address"}],"stateMutability":"view"},{"type":"function","name":"generateRequestId","inputs":[{"name":"ipfsCID","type":"string","internalType":"string"}],"outputs":[{"name":"requestId","type":"bytes32","internalType":"bytes32"}],"stateMutability":"pure"},{"type":"function","name":"owner","inputs":[],"outputs":[{"name":"","type":"address","internalType":"address"}],"stateMutability":"view"},{"type":"function","name":"payRequest","inputs":[{"name":"ipfsCID","type":"string","internalType":"string"},{"name":"recipient","type":"address","internalType":"address"},{"name":"token","type":"address","internalType":"address"},{"name":"amount","type":"uint256","internalType":"uint256"}],"outputs":[],"stateMutability":"nonpayable"},{"type":"function","name":"renounceOwnership","inputs":[],"outputs":[],"stateMutability":"nonpayable"},{"type":"function","name":"setFee","inputs":[{"name":"newFee","type":"uint256","internalType":"uint256"}],"outputs":[],"stateMutability":"nonpayable"},{"type":"function","name":"setFeeRecipient","inputs":[{"name":"newFeeRecipient","type":"address","internalType":"address"}],"outputs":[],"stateMutability":"nonpayable"},{"type":"function","name":"transferOwnership","inputs":[{"name":"newOwner","type":"address","internalType":"address"}],"outputs":[],"stateMutability":"nonpayable"},{"type":"event","name":"FeeRecipientUpdated","inputs":[{"name":"oldRecipient","type":"address","indexed":true,"internalType":"address"},{"name":"newRecipient","type":"address","indexed":true,"internalType":"address"}],"anonymous":false},{"type":"event","name":"FeeUpdated","inputs":[{"name":"oldFee","type":"uint256","indexed":false,"internalType":"uint256"},{"name":"newFee","type":"uint256","indexed":false,"internalType":"uint256"}],"anonymous":false},{"type":"event","name":"OwnershipTransferred","inputs":[{"name":"previousOwner","type":"address","indexed":true,"internalType":"address"},{"name":"newOwner","type":"address","indexed":true,"internalType":"address"}],"anonymous":false},{"type":"event","name":"PaymentCompleted","inputs":[{"name":"requestId","type":"bytes32","indexed":true,"internalType":"bytes32"},{"name":"payer","type":"address","indexed":true,"internalType":"address"},{"name":"recipient","type":"address","indexed":true,"internalType":"address"},{"name":"token","type":"address","indexed":false,"internalType":"address"},{"name":"amount","type":"uint256","indexed":false,"internalType":"uint256"},{"name":"feeAmount","type":"uint256","indexed":false,"internalType":"uint256"},{"name":"ipfsCID","type":"string","indexed":false,"internalType":"string"}],"anonymous":false},{"type":"error","name":"FeeExceedsMaximum","inputs":[]},{"type":"error","name":"InvalidAddress","inputs":[]},{"type":"error","name":"InvalidAmount","inputs":[]},{"type":"error","name":"OwnableInvalidOwner","inputs":[{"name":"owner","type":"address","internalType":"address"}]},{"type":"error","name":"OwnableUnauthorizedAccount","inputs":[{"name":"account","type":"address","internalType":"address"}]},{"type":"error","name":"ReentrancyGuardReentrantCall","inputs":[]},{"type":"error","name":"SafeERC20FailedOperation","inputs":[{"name":"token","type":"address","internalType":"address"}]},{"type":"error","name":"TransferFailed","inputs":[]}],"bytecode":{"object":"0x6080604052603260025534801562000015575f80fd5b506040516200121e3803806200121e83398181016040528101906200003b91906200029b565b335f73ffffffffffffffffffffffffffffffffffffffff168173ffffffffffffffffffffffffffffffffffffffff1603620000af575f6040517f1e4fbdf7000000000000000000000000000000000000000000000000000000008152600401620000a69190620002dc565b60405180910390fd5b620000c0816200017560201b60201c565b50600180819055505f73ffffffffffffffffffffffffffffffffffffffff168173ffffffffffffffffffffffffffffffffffffffff16036200012e576040517fe6c4247b00000000000000000000000000000000000000000000000000000000815260040160405180910390fd5b8060035f6101000a81548173ffffffffffffffffffffffffffffffffffffffff021916908373ffffffffffffffffffffffffffffffffffffffff16021790555050620002f7565b5f805f9054906101000a900473ffffffffffffffffffffffffffffffffffffffff169050815f806101000a81548173ffffffffffffffffffffffffffffffffffffffff021916908373ffffffffffffffffffffffffffffffffffffffff1602179055508173ffffffffffffffffffffffffffffffffffffffff168173ffffffffffffffffffffffffffffffffffffffff167f8be0079c531659141344cd1fd0a4f28419497f9722a3daafe3b4186f6b6457e060405160405180910390a35050565b5f80fd5b5f73ffffffffffffffffffffffffffffffffffffffff82169050919050565b5f62000265826200023a565b9050919050565b620002778162000259565b811462000282575f80fd5b50565b5f8151905062000295816200026c565b92915050565b5f60208284031215620002b357620002b262000236565b5b5f620002c28482850162000285565b91505092915050565b620002d68162000259565b82525050565b5f602082019050620002f15f830184620002cb565b92915050565b610f1980620003055f395ff3fe608060405234801561000f575f80fd5b50600436106100b2575f3560e01c8063bc063e1a1161006f578063bc063e1a14610179578063ce170fbd14610197578063d73792a9146101b3578063ddca3f43146101d1578063e74b981b146101ef578063f2fde38b1461020b576100b2565b8063283f551a146100b657806346904840146100e657806369fe0e2d14610104578063715018a6146101205780638da5cb5b1461012a57806399a5d74714610148575b5f80fd5b6100d060048036038101906100cb9190610a6a565b610227565b6040516100dd9190610acd565b60405180910390f35b6100ee610259565b6040516100fb9190610b25565b60405180910390f35b61011e60048036038101906101199190610b71565b61027e565b005b61012861030c565b005b61013261031f565b60405161013f9190610b25565b60405180910390f35b610162600480360381019061015d9190610b71565b610346565b604051610170929190610bab565b60405180910390f35b610181610378565b60405161018e9190610bd2565b60405180910390f35b6101b160048036038101906101ac9190610c15565b61037e565b005b6101bb610586565b6040516101c89190610bd2565b60405180910390f35b6101d961058c565b6040516101e69190610bd2565b60405180910390f35b61020960048036038101906102049190610c99565b610592565b005b61022560048036038101906102209190610c99565b6106c2565b005b5f828260405160200161023b929190610d00565b60405160208183030381529060405280519060200120905092915050565b60035f9054906101000a900473ffffffffffffffffffffffffffffffffffffffff1681565b610286610746565b6103e88111156102c2576040517faf9c21dc00000000000000000000000000000000000000000000000000000000815260040160405180910390fd5b5f6002549050816002819055507f528d9479e9f9889a87a3c30c7f7ba537e5e59c4c85a37733b16e57c62df613028183604051610300929190610bab565b60405180910390a15050565b610314610746565b61031d5f6107cd565b565b5f805f9054906101000a900473ffffffffffffffffffffffffffffffffffffffff16905090565b5f80612710600254846103599190610d45565b6103639190610db3565b915081836103719190610de3565b9050915091565b6103e881565b61038661088e565b5f73ffffffffffffffffffffffffffffffffffffffff168373ffffffffffffffffffffffffffffffffffffffff16036103eb576040517fe6c4247b00000000000000000000000000000000000000000000000000000000815260040160405180910390fd5b5f8103610424576040517f2c5211c600000000000000000000000000000000000000000000000000000000815260040160405180910390fd5b5f8585604051602001610438929190610d00565b6040516020818303038152906040528051906020012090505f612710600254846104629190610d45565b61046c9190610db3565b90505f818461047b9190610de3565b90505f8590506104ae3388848473ffffffffffffffffffffffffffffffffffffffff166108d4909392919063ffffffff16565b5f831115610505576105043360035f9054906101000a900473ffffffffffffffffffffffffffffffffffffffff16858473ffffffffffffffffffffffffffffffffffffffff166108d4909392919063ffffffff16565b5b8673ffffffffffffffffffffffffffffffffffffffff163373ffffffffffffffffffffffffffffffffffffffff16857fd33053d4512a78fbb4148c47e341b2f0fd671aacfae79ba8601031f83492b41a8986888f8f60405161056b959493929190610e62565b60405180910390a45050505061057f610956565b5050505050565b61271081565b60025481565b61059a610746565b5f73ffffffffffffffffffffffffffffffffffffffff168173ffffffffffffffffffffffffffffffffffffffff16036105ff576040517fe6c4247b00000000000000000000000000000000000000000000000000000000815260040160405180910390fd5b5f60035f9054906101000a900473ffffffffffffffffffffffffffffffffffffffff1690508160035f6101000a81548173ffffffffffffffffffffffffffffffffffffffff021916908373ffffffffffffffffffffffffffffffffffffffff1602179055508173ffffffffffffffffffffffffffffffffffffffff168173ffffffffffffffffffffffffffffffffffffffff167faaebcf1bfa00580e41d966056b48521fa9f202645c86d4ddf28113e617c1b1d360405160405180910390a35050565b6106ca610746565b5f73ffffffffffffffffffffffffffffffffffffffff168173ffffffffffffffffffffffffffffffffffffffff160361073a575f6040517f1e4fbdf70000000000000000000000000000000000000000000000000000000081526004016107319190610b25565b60405180910390fd5b610743816107cd565b50565b61074e61095f565b73ffffffffffffffffffffffffffffffffffffffff1661076c61031f565b73ffffffffffffffffffffffffffffffffffffffff16146107cb5761078f61095f565b6040517f118cdaa70000000000000000000000000000000000000000000000000000000081526004016107c29190610b25565b60405180910390fd5b565b5f805f9054906101000a900473ffffffffffffffffffffffffffffffffffffffff169050815f806101000a81548173ffffffffffffffffffffffffffffffffffffffff021916908373ffffffffffffffffffffffffffffffffffffffff1602179055508173ffffffffffffffffffffffffffffffffffffffff168173ffffffffffffffffffffffffffffffffffffffff167f8be0079c531659141344cd1fd0a4f28419497f9722a3daafe3b4186f6b6457e060405160405180910390a35050565b6002600154036108ca576040517f3ee5aeb500000000000000000000000000000000000000000000000000000000815260040160405180910390fd5b6002600181905550565b610950848573ffffffffffffffffffffffffffffffffffffffff166323b872dd86868660405160240161090993929190610eae565b604051602081830303815290604052915060e01b6020820180517bffffffffffffffffffffffffffffffffffffffffffffffffffffffff8381831617835250505050610966565b50505050565b60018081905550565b5f33905090565b5f8060205f8451602086015f885af180610985576040513d5f823e3d81fd5b3d92505f519150505f821461099e5760018114156109b9565b5f8473ffffffffffffffffffffffffffffffffffffffff163b145b156109fb57836040517f5274afe70000000000000000000000000000000000000000000000000000000081526004016109f29190610b25565b60405180910390fd5b50505050565b5f80fd5b5f80fd5b5f80fd5b5f80fd5b5f80fd5b5f8083601f840112610a2a57610a29610a09565b5b8235905067ffffffffffffffff811115610a4757610a46610a0d565b5b602083019150836001820283011115610a6357610a62610a11565b5b9250929050565b5f8060208385031215610a8057610a7f610a01565b5b5f83013567ffffffffffffffff811115610a9d57610a9c610a05565b5b610aa985828601610a15565b92509250509250929050565b5f819050919050565b610ac781610ab5565b82525050565b5f602082019050610ae05f830184610abe565b92915050565b5f73ffffffffffffffffffffffffffffffffffffffff82169050919050565b5f610b0f82610ae6565b9050919050565b610b1f81610b05565b82525050565b5f602082019050610b385f830184610b16565b92915050565b5f819050919050565b610b5081610b3e565b8114610b5a575f80fd5b50565b5f81359050610b6b81610b47565b92915050565b5f60208284031215610b8657610b85610a01565b5b5f610b9384828501610b5d565b91505092915050565b610ba581610b3e565b82525050565b5f604082019050610bbe5f830185610b9c565b610bcb6020830184610b9c565b9392505050565b5f602082019050610be55f830184610b9c565b92915050565b610bf481610b05565b8114610bfe575f80fd5b50565b5f81359050610c0f81610beb565b92915050565b5f805f805f60808688031215610c2e57610c2d610a01565b5b5f86013567ffffffffffffffff811115610c4b57610c4a610a05565b5b610c5788828901610a15565b95509550506020610c6a88828901610c01565b9350506040610c7b88828901610c01565b9250506060610c8c88828901610b5d565b9150509295509295909350565b5f60208284031215610cae57610cad610a01565b5b5f610cbb84828501610c01565b91505092915050565b5f81905092915050565b828183375f83830152505050565b5f610ce78385610cc4565b9350610cf4838584610cce565b82840190509392505050565b5f610d0c828486610cdc565b91508190509392505050565b7f4e487b71000000000000000000000000000000000000000000000000000000005f52601160045260245ffd5b5f610d4f82610b3e565b9150610d5a83610b3e565b9250828202610d6881610b3e565b91508282048414831517610d7f57610d7e610d18565b5b5092915050565b7f4e487b71000000000000000000000000000000000000000000000000000000005f52601260045260245ffd5b5f610dbd82610b3e565b9150610dc883610b3e565b925082610dd857610dd7610d86565b5b828204905092915050565b5f610ded82610b3e565b9150610df883610b3e565b9250828203905081811115610e1057610e0f610d18565b5b92915050565b5f82825260208201905092915050565b5f601f19601f8301169050919050565b5f610e418385610e16565b9350610e4e838584610cce565b610e5783610e26565b840190509392505050565b5f608082019050610e755f830188610b16565b610e826020830187610b9c565b610e8f6040830186610b9c565b8181036060830152610ea2818486610e36565b90509695505050505050565b5f606082019050610ec15f830186610b16565b610ece6020830185610b16565b610edb6040830184610b9c565b94935050505056fea2646970667358221220025f604d7dd15bf305bd2a95baf92c8d755397e298f4dfbd13821e38065335da64736f6c63430008170033","linkReferences":{}},"methodIdentifiers":{"FEE_DENOMINATOR()":"d73792a9","MAX_FEE()":"bc063e1a","calculateFee(uint256)":"99a5d747","fee()":"ddca3f43","feeRecipient()":"46904840","generateRequestId(string)":"283f551a","owner()":"8da5cb5b","payRequest(string,address,address,uint256)":"ce170fbd","renounceOwnership()":"715018a6","setFee(uint256)":"69fe0e2d","setFeeRecipient(address)":"e74b981b","transferOwnership(address)":"f2fde38b"},"id":33}