{"abi":[{"type":"function","name":"generateRequestId","inputs":[{"name":"ipfsCID","type":"string","internalType":"string"}],"outputs":[{"name":"requestId","type":"bytes32","internalType":"bytes32"}],"stateMutability":"pure"},{"type":"function","name":"getPaymentDetails","inputs":[{"name":"requestId","type":"bytes32","internalType":"bytes32"}],"outputs":[{"name":"details","type":"tuple","internalType":"struct PaymentRegistry.PaymentDetails","components":[{"name":"payer","type":"address","internalType":"address"},{"name":"recipient","type":"address","internalType":"address"},{"name":"token","type":"address","internalType":"address"},{"name":"amount","type":"uint256","internalType":"uint256"},{"name":"timestamp","type":"uint256","internalType":"uint256"},{"name":"ipfsCID","type":"string","internalType":"string"}]}],"stateMutability":"view"},{"type":"function","name":"isRequestPaid","inputs":[{"name":"requestId","type":"bytes32","internalType":"bytes32"}],"outputs":[{"name":"paid","type":"bool","internalType":"bool"}],"stateMutability":"view"},{"type":"function","name":"payments","inputs":[{"name":"","type":"bytes32","internalType":"bytes32"}],"outputs":[{"name":"payer","type":"address","internalType":"address"},{"name":"recipient","type":"address","internalType":"address"},{"name":"token","type":"address","internalType":"address"},{"name":"amount","type":"uint256","internalType":"uint256"},{"name":"timestamp","type":"uint256","internalType":"uint256"},{"name":"ipfsCID","type":"string","internalType":"string"}],"stateMutability":"view"},{"type":"function","name":"processPayment","inputs":[{"name":"ipfsCID","type":"string","internalType":"string"},{"name":"payer","type":"address","internalType":"address"},{"name":"recipient","type":"address","internalType":"address"},{"name":"token","type":"address","internalType":"address"},{"name":"amount","type":"uint256","internalType":"uint256"}],"outputs":[],"stateMutability":"nonpayable"},{"type":"function","name":"requestPaid","inputs":[{"name":"","type":"bytes32","internalType":"bytes32"}],"outputs":[{"name":"","type":"bool","internalType":"bool"}],"stateMutability":"view"},{"type":"event","name":"PaymentCompleted","inputs":[{"name":"requestId","type":"bytes32","indexed":true,"internalType":"bytes32"},{"name":"payer","type":"address","indexed":true,"internalType":"address"},{"name":"recipient","type":"address","indexed":true,"internalType":"address"},{"name":"token","type":"address","indexed":false,"internalType":"address"},{"name":"amount","type":"uint256","indexed":false,"internalType":"uint256"},{"name":"ipfsCID","type":"string","indexed":false,"internalType":"string"}],"anonymous":false},{"type":"error","name":"InvalidAddress","inputs":[]},{"type":"error","name":"InvalidAmount","inputs":[]},{"type":"error","name":"PaymentAlreadyCompleted","inputs":[]},{"type":"error","name":"ReentrancyGuardReentrantCall","inputs":[]},{"type":"error","name":"SafeERC20FailedOperation","inputs":[{"name":"token","type":"address","internalType":"address"}]}],"bytecode":{"object":"0x608060405234801561000f575f80fd5b5060015f8190555061132b806100245f395ff3fe608060405234801561000f575f80fd5b5060043610610060575f3560e01c80630716326d146100645780631a9bb03a14610099578063283f551a146100c95780635fd13996146100f957806366adfe1c14610129578063c52f92eb14610159575b5f80fd5b61007e60048036038101906100799190610a84565b610175565b60405161009096959493929190610b90565b60405180910390f35b6100b360048036038101906100ae9190610a84565b610290565b6040516100c09190610c10565b60405180910390f35b6100e360048036038101906100de9190610c8a565b6102b6565b6040516100f09190610ce4565b60405180910390f35b610113600480360381019061010e9190610a84565b6102e8565b6040516101209190610de9565b60405180910390f35b610143600480360381019061013e9190610a84565b6104b5565b6040516101509190610c10565b60405180910390f35b610173600480360381019061016e9190610e5d565b6104d2565b005b6002602052805f5260405f205f91509050805f015f9054906101000a900473ffffffffffffffffffffffffffffffffffffffff1690806001015f9054906101000a900473ffffffffffffffffffffffffffffffffffffffff1690806002015f9054906101000a900473ffffffffffffffffffffffffffffffffffffffff169080600301549080600401549080600501805461020f90610f20565b80601f016020809104026020016040519081016040528092919081815260200182805461023b90610f20565b80156102865780601f1061025d57610100808354040283529160200191610286565b820191905f5260205f20905b81548152906001019060200180831161026957829003601f168201915b5050505050905086565b5f60015f8381526020019081526020015f205f9054906101000a900460ff169050919050565b5f82826040516020016102ca929190610f8c565b60405160208183030381529060405280519060200120905092915050565b6102f06109d6565b60025f8381526020019081526020015f206040518060c00160405290815f82015f9054906101000a900473ffffffffffffffffffffffffffffffffffffffff1673ffffffffffffffffffffffffffffffffffffffff1673ffffffffffffffffffffffffffffffffffffffff168152602001600182015f9054906101000a900473ffffffffffffffffffffffffffffffffffffffff1673ffffffffffffffffffffffffffffffffffffffff1673ffffffffffffffffffffffffffffffffffffffff168152602001600282015f9054906101000a900473ffffffffffffffffffffffffffffffffffffffff1673ffffffffffffffffffffffffffffffffffffffff1673ffffffffffffffffffffffffffffffffffffffff168152602001600382015481526020016004820154815260200160058201805461042e90610f20565b80601f016020809104026020016040519081016040528092919081815260200182805461045a90610f20565b80156104a55780601f1061047c576101008083540402835291602001916104a5565b820191905f5260205f20905b81548152906001019060200180831161048857829003601f168201915b5050505050815250509050919050565b6001602052805f5260405f205f915054906101000a900460ff1681565b6104da61086c565b5f73ffffffffffffffffffffffffffffffffffffffff168373ffffffffffffffffffffffffffffffffffffffff160361053f576040517fe6c4247b00000000000000000000000000000000000000000000000000000000815260040160405180910390fd5b5f8103610578576040517f2c5211c600000000000000000000000000000000000000000000000000000000815260040160405180910390fd5b5f61058387876102b6565b905060015f8281526020019081526020015f205f9054906101000a900460ff16156105da576040517f9a3e7d1c00000000000000000000000000000000000000000000000000000000815260040160405180910390fd5b6106073385848673ffffffffffffffffffffffffffffffffffffffff166108b0909392919063ffffffff16565b6001805f8381526020019081526020015f205f6101000a81548160ff0219169083151502179055506040518060c001604052808673ffffffffffffffffffffffffffffffffffffffff1681526020018573ffffffffffffffffffffffffffffffffffffffff1681526020018473ffffffffffffffffffffffffffffffffffffffff16815260200183815260200142815260200188888080601f0160208091040260200160405190810160405280939291908181526020018383808284375f81840152601f19601f8201169050808301925050505050505081525060025f8381526020019081526020015f205f820151815f015f6101000a81548173ffffffffffffffffffffffffffffffffffffffff021916908373ffffffffffffffffffffffffffffffffffffffff1602179055506020820151816001015f6101000a81548173ffffffffffffffffffffffffffffffffffffffff021916908373ffffffffffffffffffffffffffffffffffffffff1602179055506040820151816002015f6101000a81548173ffffffffffffffffffffffffffffffffffffffff021916908373ffffffffffffffffffffffffffffffffffffffff160217905550606082015181600301556080820151816004015560a08201518160050190816107eb919061116e565b509050508373ffffffffffffffffffffffffffffffffffffffff168573ffffffffffffffffffffffffffffffffffffffff16827f5bf16101406db6ce1835f20bd690d00d27b1b231be563003e31e06beccca1ff886868c8c6040516108539493929190611269565b60405180910390a450610864610932565b505050505050565b60025f54036108a7576040517f3ee5aeb500000000000000000000000000000000000000000000000000000000815260040160405180910390fd5b60025f81905550565b61092c848573ffffffffffffffffffffffffffffffffffffffff166323b872dd8686866040516024016108e5939291906112a7565b604051602081830303815290604052915060e01b6020820180517bffffffffffffffffffffffffffffffffffffffffffffffffffffffff838183161783525050505061093b565b50505050565b60015f81905550565b5f8060205f8451602086015f885af18061095a576040513d5f823e3d81fd5b3d92505f519150505f821461097357600181141561098e565b5f8473ffffffffffffffffffffffffffffffffffffffff163b145b156109d057836040517f5274afe70000000000000000000000000000000000000000000000000000000081526004016109c791906112dc565b60405180910390fd5b50505050565b6040518060c001604052805f73ffffffffffffffffffffffffffffffffffffffff1681526020015f73ffffffffffffffffffffffffffffffffffffffff1681526020015f73ffffffffffffffffffffffffffffffffffffffff1681526020015f81526020015f8152602001606081525090565b5f80fd5b5f80fd5b5f819050919050565b610a6381610a51565b8114610a6d575f80fd5b50565b5f81359050610a7e81610a5a565b92915050565b5f60208284031215610a9957610a98610a49565b5b5f610aa684828501610a70565b91505092915050565b5f73ffffffffffffffffffffffffffffffffffffffff82169050919050565b5f610ad882610aaf565b9050919050565b610ae881610ace565b82525050565b5f819050919050565b610b0081610aee565b82525050565b5f81519050919050565b5f82825260208201905092915050565b5f5b83811015610b3d578082015181840152602081019050610b22565b5f8484015250505050565b5f601f19601f8301169050919050565b5f610b6282610b06565b610b6c8185610b10565b9350610b7c818560208601610b20565b610b8581610b48565b840191505092915050565b5f60c082019050610ba35f830189610adf565b610bb06020830188610adf565b610bbd6040830187610adf565b610bca6060830186610af7565b610bd76080830185610af7565b81810360a0830152610be98184610b58565b9050979650505050505050565b5f8115159050919050565b610c0a81610bf6565b82525050565b5f602082019050610c235f830184610c01565b92915050565b5f80fd5b5f80fd5b5f80fd5b5f8083601f840112610c4a57610c49610c29565b5b8235905067ffffffffffffffff811115610c6757610c66610c2d565b5b602083019150836001820283011115610c8357610c82610c31565b5b9250929050565b5f8060208385031215610ca057610c9f610a49565b5b5f83013567ffffffffffffffff811115610cbd57610cbc610a4d565b5b610cc985828601610c35565b92509250509250929050565b610cde81610a51565b82525050565b5f602082019050610cf75f830184610cd5565b92915050565b610d0681610ace565b82525050565b610d1581610aee565b82525050565b5f82825260208201905092915050565b5f610d3582610b06565b610d3f8185610d1b565b9350610d4f818560208601610b20565b610d5881610b48565b840191505092915050565b5f60c083015f830151610d785f860182610cfd565b506020830151610d8b6020860182610cfd565b506040830151610d9e6040860182610cfd565b506060830151610db16060860182610d0c565b506080830151610dc46080860182610d0c565b5060a083015184820360a0860152610ddc8282610d2b565b9150508091505092915050565b5f6020820190508181035f830152610e018184610d63565b905092915050565b610e1281610ace565b8114610e1c575f80fd5b50565b5f81359050610e2d81610e09565b92915050565b610e3c81610aee565b8114610e46575f80fd5b50565b5f81359050610e5781610e33565b92915050565b5f805f805f8060a08789031215610e7757610e76610a49565b5b5f87013567ffffffffffffffff811115610e9457610e93610a4d565b5b610ea089828a01610c35565b96509650506020610eb389828a01610e1f565b9450506040610ec489828a01610e1f565b9350506060610ed589828a01610e1f565b9250506080610ee689828a01610e49565b9150509295509295509295565b7f4e487b71000000000000000000000000000000000000000000000000000000005f52602260045260245ffd5b5f6002820490506001821680610f3757607f821691505b602082108103610f4a57610f49610ef3565b5b50919050565b5f81905092915050565b828183375f83830152505050565b5f610f738385610f50565b9350610f80838584610f5a565b82840190509392505050565b5f610f98828486610f68565b91508190509392505050565b7f4e487b71000000000000000000000000000000000000000000000000000000005f52604160045260245ffd5b5f819050815f5260205f209050919050565b5f6020601f8301049050919050565b5f82821b905092915050565b5f6008830261102d7fffffffffffffffffffffffffffffffffffffffffffffffffffffffffffffffff82610ff2565b6110378683610ff2565b95508019841693508086168417925050509392505050565b5f819050919050565b5f61107261106d61106884610aee565b61104f565b610aee565b9050919050565b5f819050919050565b61108b83611058565b61109f61109782611079565b848454610ffe565b825550505050565b5f90565b6110b36110a7565b6110be818484611082565b505050565b5b818110156110e1576110d65f826110ab565b6001810190506110c4565b5050565b601f821115611126576110f781610fd1565b61110084610fe3565b8101602085101561110f578190505b61112361111b85610fe3565b8301826110c3565b50505b505050565b5f82821c905092915050565b5f6111465f198460080261112b565b1980831691505092915050565b5f61115e8383611137565b9150826002028217905092915050565b61117782610b06565b67ffffffffffffffff8111156111905761118f610fa4565b5b61119a8254610f20565b6111a58282856110e5565b5f60209050601f8311600181146111d6575f84156111c4578287015190505b6111ce8582611153565b865550611235565b601f1984166111e486610fd1565b5f5b8281101561120b578489015182556001820191506020850194506020810190506111e6565b868310156112285784890151611224601f891682611137565b8355505b6001600288020188555050505b505050505050565b5f6112488385610b10565b9350611255838584610f5a565b61125e83610b48565b840190509392505050565b5f60608201905061127c5f830187610adf565b6112896020830186610af7565b818103604083015261129c81848661123d565b905095945050505050565b5f6060820190506112ba5f830186610adf565b6112c76020830185610adf565b6112d46040830184610af7565b949350505050565b5f6020820190506112ef5f830184610adf565b9291505056fea264697066735822122058b4ac7100094196fd118df889999d0c2d63e62e54120b089b57436f70da6b6764736f6c63430008170033","linkReferences":{}},"methodIdentifiers":{"generateRequestId(string)":"283f551a","getPaymentDetails(bytes32)":"5fd13996","isRequestPaid(bytes32)":"1a9bb03a","payments(bytes32)":"0716326d","processPayment(string,address,address,address,uint256)":"c52f92eb","requestPaid(bytes32)":"66adfe1c"},"id":32}