{"abi":[{"type":"constructor","inputs":[{"name":"_feeRecipient","type":"address","internalType":"address"},{"name":"_registry","type":"address","internalType":"address"}],"stateMutability":"nonpayable"},{"type":"function","name":"FEE_DENOMINATOR","inputs":[],"outputs":[{"name":"","type":"uint256","internalType":"uint256"}],"stateMutability":"view"},{"type":"function","name":"MAX_FEE","inputs":[],"outputs":[{"name":"","type":"uint256","internalType":"uint256"}],"stateMutability":"view"},{"type":"function","name":"REGISTRY","inputs":[],"outputs":[{"name":"","type":"address","internalType":"contract PaymentRegistry"}],"stateMutability":"view"},{"type":"function","name":"calculateFee","inputs":[{"name":"amount","type":"uint256","internalType":"uint256"}],"outputs":[{"name":"feeAmount","type":"uint256","internalType":"uint256"},{"name":"totalAmount","type":"uint256","internalType":"uint256"}],"stateMutability":"view"},{"type":"function","name":"fee","inputs":[],"outputs":[{"name":"","type":"uint256","internalType":"uint256"}],"stateMutability":"view"},{"type":"function","name":"feeRecipient","inputs":[],"outputs":[{"name":"","type":"address","internalType":"address"}],"stateMutability":"view"},{"type":"function","name":"owner","inputs":[],"outputs":[{"name":"","type":"address","internalType":"address"}],"stateMutability":"view"},{"type":"function","name":"payRequest","inputs":[{"name":"ipfsCID","type":"string","internalType":"string"},{"name":"recipient","type":"address","internalType":"address"},{"name":"token","type":"address","internalType":"address"},{"name":"amount","type":"uint256","internalType":"uint256"}],"outputs":[],"stateMutability":"nonpayable"},{"type":"function","name":"renounceOwnership","inputs":[],"outputs":[],"stateMutability":"nonpayable"},{"type":"function","name":"setFee","inputs":[{"name":"newFee","type":"uint256","internalType":"uint256"}],"outputs":[],"stateMutability":"nonpayable"},{"type":"function","name":"setFeeRecipient","inputs":[{"name":"newFeeRecipient","type":"address","internalType":"address"}],"outputs":[],"stateMutability":"nonpayable"},{"type":"function","name":"transferOwnership","inputs":[{"name":"newOwner","type":"address","internalType":"address"}],"outputs":[],"stateMutability":"nonpayable"},{"type":"event","name":"FeeRecipientUpdated","inputs":[{"name":"oldRecipient","type":"address","indexed":true,"internalType":"address"},{"name":"newRecipient","type":"address","indexed":true,"internalType":"address"}],"anonymous":false},{"type":"event","name":"FeeUpdated","inputs":[{"name":"oldFee","type":"uint256","indexed":false,"internalType":"uint256"},{"name":"newFee","type":"uint256","indexed":false,"internalType":"uint256"}],"anonymous":false},{"type":"event","name":"OwnershipTransferred","inputs":[{"name":"previousOwner","type":"address","indexed":true,"internalType":"address"},{"name":"newOwner","type":"address","indexed":true,"internalType":"address"}],"anonymous":false},{"type":"event","name":"PaymentProcessed","inputs":[{"name":"requestId","type":"bytes32","indexed":true,"internalType":"bytes32"},{"name":"totalAmount","type":"uint256","indexed":false,"internalType":"uint256"},{"name":"feeAmount","type":"uint256","indexed":false,"internalType":"uint256"}],"anonymous":false},{"type":"error","name":"FeeExceedsMaximum","inputs":[]},{"type":"error","name":"InvalidAddress","inputs":[]},{"type":"error","name":"InvalidAmount","inputs":[]},{"type":"error","name":"OwnableInvalidOwner","inputs":[{"name":"owner","type":"address","internalType":"address"}]},{"type":"error","name":"OwnableUnauthorizedAccount","inputs":[{"name":"account","type":"address","internalType":"address"}]},{"type":"error","name":"ReentrancyGuardReentrantCall","inputs":[]},{"type":"error","name":"SafeERC20FailedOperation","inputs":[{"name":"token","type":"address","internalType":"address"}]}],"bytecode":{"object":"0x60a0604052603260025534801562000015575f80fd5b506040516200168b3803806200168b83398181016040528101906200003b919062000336565b335f73ffffffffffffffffffffffffffffffffffffffff168173ffffffffffffffffffffffffffffffffffffffff1603620000af575f6040517f1e4fbdf7000000000000000000000000000000000000000000000000000000008152600401620000a691906200038c565b60405180910390fd5b620000c0816200021060201b60201c565b50600180819055505f73ffffffffffffffffffffffffffffffffffffffff168273ffffffffffffffffffffffffffffffffffffffff16036200012e576040517fe6c4247b00000000000000000000000000000000000000000000000000000000815260040160405180910390fd5b5f73ffffffffffffffffffffffffffffffffffffffff168173ffffffffffffffffffffffffffffffffffffffff160362000194576040517fe6c4247b00000000000000000000000000000000000000000000000000000000815260040160405180910390fd5b8160035f6101000a81548173ffffffffffffffffffffffffffffffffffffffff021916908373ffffffffffffffffffffffffffffffffffffffff1602179055508073ffffffffffffffffffffffffffffffffffffffff1660808173ffffffffffffffffffffffffffffffffffffffff16815250505050620003a7565b5f805f9054906101000a900473ffffffffffffffffffffffffffffffffffffffff169050815f806101000a81548173ffffffffffffffffffffffffffffffffffffffff021916908373ffffffffffffffffffffffffffffffffffffffff1602179055508173ffffffffffffffffffffffffffffffffffffffff168173ffffffffffffffffffffffffffffffffffffffff167f8be0079c531659141344cd1fd0a4f28419497f9722a3daafe3b4186f6b6457e060405160405180910390a35050565b5f80fd5b5f73ffffffffffffffffffffffffffffffffffffffff82169050919050565b5f6200030082620002d5565b9050919050565b6200031281620002f4565b81146200031d575f80fd5b50565b5f81519050620003308162000307565b92915050565b5f80604083850312156200034f576200034e620002d1565b5b5f6200035e8582860162000320565b9250506020620003718582860162000320565b9150509250929050565b6200038681620002f4565b82525050565b5f602082019050620003a15f8301846200037b565b92915050565b6080516112b6620003d55f395f8181610217015281816104b801528181610500015261059101526112b65ff3fe608060405234801561000f575f80fd5b50600436106100b2575f3560e01c8063bc063e1a1161006f578063bc063e1a14610167578063ce170fbd14610185578063d73792a9146101a1578063ddca3f43146101bf578063e74b981b146101dd578063f2fde38b146101f9576100b2565b806306433b1b146100b657806346904840146100d457806369fe0e2d146100f2578063715018a61461010e5780638da5cb5b1461011857806399a5d74714610136575b5f80fd5b6100be610215565b6040516100cb9190610d51565b60405180910390f35b6100dc610239565b6040516100e99190610d8a565b60405180910390f35b61010c60048036038101906101079190610dde565b61025e565b005b6101166102ec565b005b6101206102ff565b60405161012d9190610d8a565b60405180910390f35b610150600480360381019061014b9190610dde565b610326565b60405161015e929190610e18565b60405180910390f35b61016f610358565b60405161017c9190610e3f565b60405180910390f35b61019f600480360381019061019a9190610ee3565b61035e565b005b6101a9610677565b6040516101b69190610e3f565b60405180910390f35b6101c761067d565b6040516101d49190610e3f565b60405180910390f35b6101f760048036038101906101f29190610f67565b610683565b005b610213600480360381019061020e9190610f67565b6107b3565b005b7f000000000000000000000000000000000000000000000000000000000000000081565b60035f9054906101000a900473ffffffffffffffffffffffffffffffffffffffff1681565b610266610837565b6103e88111156102a2576040517faf9c21dc00000000000000000000000000000000000000000000000000000000815260040160405180910390fd5b5f6002549050816002819055507f528d9479e9f9889a87a3c30c7f7ba537e5e59c4c85a37733b16e57c62df6130281836040516102e0929190610e18565b60405180910390a15050565b6102f4610837565b6102fd5f6108be565b565b5f805f9054906101000a900473ffffffffffffffffffffffffffffffffffffffff16905090565b5f80612710600254846103399190610fbf565b610343919061102d565b91508183610351919061105d565b9050915091565b6103e881565b61036661097f565b5f73ffffffffffffffffffffffffffffffffffffffff168373ffffffffffffffffffffffffffffffffffffffff16036103cb576040517fe6c4247b00000000000000000000000000000000000000000000000000000000815260040160405180910390fd5b5f8103610404576040517f2c5211c600000000000000000000000000000000000000000000000000000000815260040160405180910390fd5b5f612710600254836104169190610fbf565b610420919061102d565b90505f818361042f919061105d565b905061045e3330838773ffffffffffffffffffffffffffffffffffffffff166109c5909392919063ffffffff16565b5f8211156104b3576104b260035f9054906101000a900473ffffffffffffffffffffffffffffffffffffffff16838673ffffffffffffffffffffffffffffffffffffffff16610a479092919063ffffffff16565b5b6104fe7f0000000000000000000000000000000000000000000000000000000000000000848673ffffffffffffffffffffffffffffffffffffffff16610ac69092919063ffffffff16565b7f000000000000000000000000000000000000000000000000000000000000000073ffffffffffffffffffffffffffffffffffffffff1663c52f92eb8888338989896040518763ffffffff1660e01b8152600401610561969594939291906110ea565b5f604051808303815f87803b158015610578575f80fd5b505af115801561058a573d5f803e3d5ffd5b505050505f7f000000000000000000000000000000000000000000000000000000000000000073ffffffffffffffffffffffffffffffffffffffff1663283f551a89896040518363ffffffff1660e01b81526004016105ea929190611144565b602060405180830381865afa158015610605573d5f803e3d5ffd5b505050506040513d601f19601f820116820180604052508101906106299190611199565b9050807f2b03c8e6360e1b60d00fb9df97e403562f1a76b8a172d6d46f5365c05be04d03838560405161065d929190610e18565b60405180910390a2505050610670610bd3565b5050505050565b61271081565b60025481565b61068b610837565b5f73ffffffffffffffffffffffffffffffffffffffff168173ffffffffffffffffffffffffffffffffffffffff16036106f0576040517fe6c4247b00000000000000000000000000000000000000000000000000000000815260040160405180910390fd5b5f60035f9054906101000a900473ffffffffffffffffffffffffffffffffffffffff1690508160035f6101000a81548173ffffffffffffffffffffffffffffffffffffffff021916908373ffffffffffffffffffffffffffffffffffffffff1602179055508173ffffffffffffffffffffffffffffffffffffffff168173ffffffffffffffffffffffffffffffffffffffff167faaebcf1bfa00580e41d966056b48521fa9f202645c86d4ddf28113e617c1b1d360405160405180910390a35050565b6107bb610837565b5f73ffffffffffffffffffffffffffffffffffffffff168173ffffffffffffffffffffffffffffffffffffffff160361082b575f6040517f1e4fbdf70000000000000000000000000000000000000000000000000000000081526004016108229190610d8a565b60405180910390fd5b610834816108be565b50565b61083f610bdc565b73ffffffffffffffffffffffffffffffffffffffff1661085d6102ff565b73ffffffffffffffffffffffffffffffffffffffff16146108bc57610880610bdc565b6040517f118cdaa70000000000000000000000000000000000000000000000000000000081526004016108b39190610d8a565b60405180910390fd5b565b5f805f9054906101000a900473ffffffffffffffffffffffffffffffffffffffff169050815f806101000a81548173ffffffffffffffffffffffffffffffffffffffff021916908373ffffffffffffffffffffffffffffffffffffffff1602179055508173ffffffffffffffffffffffffffffffffffffffff168173ffffffffffffffffffffffffffffffffffffffff167f8be0079c531659141344cd1fd0a4f28419497f9722a3daafe3b4186f6b6457e060405160405180910390a35050565b6002600154036109bb576040517f3ee5aeb500000000000000000000000000000000000000000000000000000000815260040160405180910390fd5b6002600181905550565b610a41848573ffffffffffffffffffffffffffffffffffffffff166323b872dd8686866040516024016109fa939291906111c4565b604051602081830303815290604052915060e01b6020820180517bffffffffffffffffffffffffffffffffffffffffffffffffffffffff8381831617835250505050610be3565b50505050565b610ac1838473ffffffffffffffffffffffffffffffffffffffff1663a9059cbb8585604051602401610a7a9291906111f9565b604051602081830303815290604052915060e01b6020820180517bffffffffffffffffffffffffffffffffffffffffffffffffffffffff8381831617835250505050610be3565b505050565b5f8373ffffffffffffffffffffffffffffffffffffffff1663095ea7b38484604051602401610af69291906111f9565b604051602081830303815290604052915060e01b6020820180517bffffffffffffffffffffffffffffffffffffffffffffffffffffffff83818316178352505050509050610b448482610c7e565b610bcd57610bc2848573ffffffffffffffffffffffffffffffffffffffff1663095ea7b3865f604051602401610b7b929190611259565b604051602081830303815290604052915060e01b6020820180517bffffffffffffffffffffffffffffffffffffffffffffffffffffffff8381831617835250505050610be3565b610bcc8482610be3565b5b50505050565b60018081905550565b5f33905090565b5f8060205f8451602086015f885af180610c02576040513d5f823e3d81fd5b3d92505f519150505f8214610c1b576001811415610c36565b5f8473ffffffffffffffffffffffffffffffffffffffff163b145b15610c7857836040517f5274afe7000000000000000000000000000000000000000000000000000000008152600401610c6f9190610d8a565b60405180910390fd5b50505050565b5f805f8060205f8651602088015f8a5af192503d91505f519050828015610ccc57505f8214610cb05760018114610ccb565b5f8673ffffffffffffffffffffffffffffffffffffffff163b115b5b935050505092915050565b5f73ffffffffffffffffffffffffffffffffffffffff82169050919050565b5f819050919050565b5f610d19610d14610d0f84610cd7565b610cf6565b610cd7565b9050919050565b5f610d2a82610cff565b9050919050565b5f610d3b82610d20565b9050919050565b610d4b81610d31565b82525050565b5f602082019050610d645f830184610d42565b92915050565b5f610d7482610cd7565b9050919050565b610d8481610d6a565b82525050565b5f602082019050610d9d5f830184610d7b565b92915050565b5f80fd5b5f80fd5b5f819050919050565b610dbd81610dab565b8114610dc7575f80fd5b50565b5f81359050610dd881610db4565b92915050565b5f60208284031215610df357610df2610da3565b5b5f610e0084828501610dca565b91505092915050565b610e1281610dab565b82525050565b5f604082019050610e2b5f830185610e09565b610e386020830184610e09565b9392505050565b5f602082019050610e525f830184610e09565b92915050565b5f80fd5b5f80fd5b5f80fd5b5f8083601f840112610e7957610e78610e58565b5b8235905067ffffffffffffffff811115610e9657610e95610e5c565b5b602083019150836001820283011115610eb257610eb1610e60565b5b9250929050565b610ec281610d6a565b8114610ecc575f80fd5b50565b5f81359050610edd81610eb9565b92915050565b5f805f805f60808688031215610efc57610efb610da3565b5b5f86013567ffffffffffffffff811115610f1957610f18610da7565b5b610f2588828901610e64565b95509550506020610f3888828901610ecf565b9350506040610f4988828901610ecf565b9250506060610f5a88828901610dca565b9150509295509295909350565b5f60208284031215610f7c57610f7b610da3565b5b5f610f8984828501610ecf565b91505092915050565b7f4e487b71000000000000000000000000000000000000000000000000000000005f52601160045260245ffd5b5f610fc982610dab565b9150610fd483610dab565b9250828202610fe281610dab565b91508282048414831517610ff957610ff8610f92565b5b5092915050565b7f4e487b71000000000000000000000000000000000000000000000000000000005f52601260045260245ffd5b5f61103782610dab565b915061104283610dab565b92508261105257611051611000565b5b828204905092915050565b5f61106782610dab565b915061107283610dab565b925082820190508082111561108a57611089610f92565b5b92915050565b5f82825260208201905092915050565b828183375f83830152505050565b5f601f19601f8301169050919050565b5f6110c98385611090565b93506110d68385846110a0565b6110df836110ae565b840190509392505050565b5f60a0820190508181035f83015261110381888a6110be565b90506111126020830187610d7b565b61111f6040830186610d7b565b61112c6060830185610d7b565b6111396080830184610e09565b979650505050505050565b5f6020820190508181035f83015261115d8184866110be565b90509392505050565b5f819050919050565b61117881611166565b8114611182575f80fd5b50565b5f815190506111938161116f565b92915050565b5f602082840312156111ae576111ad610da3565b5b5f6111bb84828501611185565b91505092915050565b5f6060820190506111d75f830186610d7b565b6111e46020830185610d7b565b6111f16040830184610e09565b949350505050565b5f60408201905061120c5f830185610d7b565b6112196020830184610e09565b9392505050565b5f819050919050565b5f61124361123e61123984611220565b610cf6565b610dab565b9050919050565b61125381611229565b82525050565b5f60408201905061126c5f830185610d7b565b611279602083018461124a565b939250505056fea2646970667358221220e22b0aca3245d7f03a5326eccb94a7adc290679d75821e394f3c0e22322908cf64736f6c63430008170033","linkReferences":{}},"methodIdentifiers":{"FEE_DENOMINATOR()":"d73792a9","MAX_FEE()":"bc063e1a","REGISTRY()":"06433b1b","calculateFee(uint256)":"99a5d747","fee()":"ddca3f43","feeRecipient()":"46904840","owner()":"8da5cb5b","payRequest(string,address,address,uint256)":"ce170fbd","renounceOwnership()":"715018a6","setFee(uint256)":"69fe0e2d","setFeeRecipient(address)":"e74b981b","transferOwnership(address)":"f2fde38b"},"id":31}